:100000000C949D020C94C5020C94C5020C94C5027C
:100010000C94C5020C94C5020C94C5020C94C50244
:100020000C94C5020C94C5020C94C5020C94C50234
:100030000C94C5020C94C5020C94C5020C94C50224
:100040000C9493080C94C5020C9403090C94DD08DD
:100050000C94C5020C94C5020C94C5020C94C50204
:100060000C9435090C94C5024C5342204649525316
:1000700054202842697420302E2E3729004D5342D7
:10008000204649525354202842697420372E2E307E
:100090002900436F6D6D616E64733A205B505D2083
:1000A000546F67676C6520506F6C6172697479205A
:1000B0007C205B425D20546F67676C6520417574DE
:1000C0006F2D42617564207C205B4F5D20546F670B
:1000D000676C6520426974204F72646572207C20D1
:1000E0005B535D205374617475730A002D2D2D2DA3
:1000F0002D2D2D2D2D2D2D2D2D2D2D2D2D2D2D2D30
:100100002D2D2D2D2D2D2D2D2D2D2D2D2D2D2D2D1F
:100110002D2D00204572726F722042797465730034
:100120002056616C6964204279746573207C2000DC
:1001300020352E2054656C656D657472792053747A
:100140006174732020203A200044495341424C45B9
:10015000442028466978656420426974205065729D
:10016000696F642900454E41424C45442028417541
:10017000746F2D6C6F636B732053746172742042C3
:100180006974290020342E20426974204F726465FE
:10019000722020202020202020203A2000206D7373
:1001A0002F6269740020332E2042697420506572DA
:1001B000696F6420202020202020203A2000414325
:1001C000544956452D4C4F5720284C696768742078
:1001D0004F4E203D204C4F5729004143544956452E
:1001E0002D4849474820284C69676874204F4E20A5
:1001F0003D2048494748290020322E204175746F20
:100200002D426175642054756E696E6720203A2016
:100210000020312E20506F6C6172697479204D6F0F
:10022000646520202020203A20000A2D2D2D204317
:10023000555252454E542052454345495645522049
:10024000434F4E46494755524154494F4E202D2D5C
:100250002D0000000000240027002A005B415554B7
:100260004F4445544543545D20416D6269656E7449
:10027000204C4452207374617465206973204C4F84
:1002800057202D3E20536574204163746976652D97
:1002900048494748206C6F6769632E005B4155549D
:1002A0004F4445544543545D20416D6269656E7409
:1002B000204C44522073746174652069732048494E
:1002C0004748202D3E20536574204163746976654C
:1002D0002D4C4F57206C6F6769632E003D3D3D3DAF
:1002E0003D3D3D3D3D3D3D3D3D3D3D3D3D3D3D3D3E
:1002F0003D3D3D3D3D3D3D3D3D3D3D3D3D3D3D3D2E
:100300003D3D3D3D3D3D3D3D3D3D3D3D3D3D3D3D1D
:100310003D3D3D3D3D3D002020204C694669205338
:100320006563757265205465726D696E616C202D10
:1003300020456E68616E6365642052656365697609
:100340006572204669726D776172652076322E3053
:10035000003D3D3D3D3D3D3D3D3D3D3D3D3D3D3D0A
:100360003D3D3D3D3D3D3D3D3D3D3D3D3D3D3D3DBD
:100370003D3D3D3D3D3D3D3D3D3D3D3D3D3D3D3DAD
:100380003D3D3D3D3D3D3D3D3D3D3D004C534220CD
:100390004649525354004D5342204649525354004B
:1003A0005B4346475D20426974204F72646572204A
:1003B000746F67676C656420746F3A20004449531A
:1003C00041424C454400454E41424C4544005B434C
:1003D00046475D204175746F2D42617564206D6FD5
:1003E00064653A20004143544956452D4C4F57000F
:1003F0004143544956452D48494748005B434647C9
:100400005D20506F6C617269747920746F67676CDE
:10041000656420746F3A20004E4F202854696D693E
:100420006E67204472696674290059455300207C28
:100430002053746F70204269742056616C69643A6D
:1004400020005B5741524E494E475D20436F727208
:1004500075707465642F496E76616C6964204672AC
:10046000616D652049676E6F7265642E20427974F4
:10047000653A2030780029002C204845583A203031
:1004800078002720284445433A20005D204153430B
:1004900049493A2027005B52454356202300206DEE
:1004A0007300206D73202D3E204175746F2D74757F
:1004B0006E65642042697420506572696F642074AF
:1004C0006F3A20005B4155544F2D424155445D2009
:1004D0004D65617375726564205374617274204256
:1004E00069743A200000000000250028002B00005D
:1004F000000000230026002900040404040404046E
:1005000004020202020202030303030303010204C2
:100510000810204080010204081020010204081085
:100520002000000008000201000003040700000092
:10053000000000000000990A9E0F11241FBECFEF9B
:10054000D8E0DEBFCDBF23E0A4E8B1E001C01D923A
:10055000A331B207E1F711E0A0E0B1E0E8E7F8E28B
:1005600002C005900D92A438B107D9F712E0CCE98A
:10057000D2E004C02197FE010E943712CB39D10787
:10058000C9F70E94F00A0C942F140C9400008330D9
:1005900081F028F4813099F08230A9F008958730F5
:1005A000A9F08830C9F08430B1F4809180008F7D4B
:1005B00003C0809180008F7780938000089584B578
:1005C0008F7784BD089584B58F7DFBCF8091B00077
:1005D0008F778093B00008958091B0008F7DF9CF20
:1005E000CF93DF93E9E2F5E08491E5E1F5E0D49182
:1005F000E1E0F5E0C491CC23A1F081110E94C70293
:10060000EC2FF0E0EE0FFF1FE151FB4FA591B491ED
:10061000EC91ED2381E090E009F480E0DF91CF914F
:10062000089580E090E0FACF1F93CF93DF93282FB7
:1006300030E0F901EF5DFA4F8491F901E35FFA4F81
:10064000D491F901E750FB4FC491CC23A9F0162FA8
:1006500081110E94C702EC2FF0E0EE0FFF1FEB515B
:10066000FB4FA591B4918FB7F894EC91111108C08C
:10067000D095DE23DC938FBFDF91CF911F9108953A
:10068000DE2BF8CF3FB7F89480914F029091500243
:10069000A0915102B091520226B5A89B05C02F3FF0
:1006A00019F00196A11DB11D3FBFBA2FA92F982F98
:1006B0008827BC01CD01620F711D811D911D42E093
:1006C000660F771F881F991F4A95D1F708958F925B
:1006D0009F92AF92BF92CF92DF92EF92FF926B0107
:1006E0007C010E9442034B015C01C114D104E1046E
:1006F000F104B9F00E944203681979098A099B093B
:10070000683E73408105910580F321E0C21AD1084B
:10071000E108F10888EE880E83E0981EA11CB11C48
:10072000E4CFFF90EF90DF90CF90BF90AF909F907D
:100730008F900895089508950895AF92BF92CF9233
:10074000DF92EF92FF920F931F93CF93DF936C0191
:100750007B018B01040F151FEB015E01AE18BF0872
:10076000C017D10759F06991D601ED91FC91019024
:10077000F081E02DC6010995892B79F7C501DF913C
:10078000CF911F910F91FF90EF90DF90CF90BF908E
:10079000AF900895FC01538D448D252F30E0842FB8
:1007A00090E0821B930B541710F0CF960895019799
:1007B0000895FC01918D828D981761F0A28DAE0F86
:1007C000BF2FB11D5D968C91928D9F5F9F73928F0D
:1007D00090E008958FEF9FEF0895FC01918D828D39
:1007E000981731F0828DE80FF11D858D90E0089506
:1007F0008FEF9FEF0895FC01918D228D892F90E05E
:10080000805C9F4F821B91098F739927089583E520
:1008100092E00E94FB0321E0892B09F420E0822F63
:10082000089580E090E0892B29F00E94070481114F
:100830000C9400000895FC01A48DA80FB92FB11DE0
:10084000A35ABF4F2C91848D90E001968F73992706
:10085000848FA689B7892C93A089B1898C918370E4
:1008600080648C93938D848D981306C00288F389DD
:10087000E02D80818F7D80830895EF92FF920F930A
:100880001F93CF93DF93EC0181E0888F9B8D8C8D3C
:1008900098131AC0E889F989808185FF15C09FB730
:1008A000F894EE89FF896083E889F98980818370F3
:1008B000806480839FBF81E090E0DF91CF911F91A2
:1008C0000F91FF90EF900895F62E0B8D10E00F5FC3
:1008D0001F4F0F731127E02E8C8D8E110CC00FB699
:1008E00007FCFACFE889F989808185FFF5CFCE0131
:1008F0000E941B04F1CFEB8DEC0FFD2FF11DE35A8D
:10090000FF4FF0829FB7F8940B8FEA89FB898081B3
:100910008062CFCF0F931F93CF93DF938C01D0E0F2
:10092000C0E0F801EC0FFD1F6491662341F083E500
:1009300092E00E943D04892B11F02196F2CFCE0166
:10094000DF91CF911F910F910895CF93DF93EC0129
:10095000888D8823B9F0AA89BB89E889F9898C91A7
:1009600085FD03C0808186FD0DC00FB607FCF7CF63
:100970008C9185FFF2CF808185FFEDCFCE010E9463
:100980001B04E9CFDF91CF9108952091C501260F77
:100990003327331F21323105ECF420910E02FC0184
:1009A00090E080E0243069F082E00895A091C501D4
:1009B0002191AC014B555E4FA40FB52FB11D2C9367
:1009C0000196861798F38091C501680F6093C50161
:1009D00080E0089581E0089510920E0281E08093F6
:1009E0000D021092E80161E082E10E94140361E0CF
:1009F00083E10E941403E9EBF0E080818E7F808325
:100A000080818D7F808388E48093B80085E4809323
:100A1000BC000895CF93DF9391E09093A4018823C5
:100A2000B9F0C091B800D091BA008091BC008A7B27
:100A30008093BC0060E082E10E94140360E083E1E7
:100A40000E9414030E94EC04D093BA00C093B80033
:100A5000DF91CF9108950895E0913D0280913C028D
:100A6000E81730F4F0E0EC57FE4F808190E00895F5
:100A70008FEF9FEF089590913D0280913C022FEF00
:100A80003FEF981748F4E92FF0E0EC57FE4F208134
:100A900030E09F5F90933D02C901089580913C0230
:100AA00090913D02891B990B0895CF92DF92EF92AE
:100AB000FF920F931F93CF93DF937C01CB018A01A9
:100AC00020911402222389F0EB016B01C40ED51E84
:100AD000CC15DD0569F06991D701ED91FC9101908C
:100AE000F081E02DC7010995F3CF642F0E94C50462
:100AF000C801DF91CF911F910F91FF90EF90DF9090
:100B0000CF900895CF93DF931F92CDB7DEB769835F
:100B1000209114022223F9F020913A02203258F059
:100B200021E030E0FC013383228390E080E00F90ED
:100B3000DF91CF91089580913B02E82FF0E0EB5ECA
:100B4000FD4F998190838F5F80933B0280933A029F
:100B500081E090E0ECCF61E0CE0101960E94C504F7
:100B6000F7CFCF92DF92EF92FF920F931F93CF9325
:100B7000DF93FC01C48121E020931402C09335026D
:100B800010923B0210923A028485682B80EF92E02B
:100B90000E948205D0913A02D13208F092C00E94A0
:100BA00042036B017C0180910E02811165C082E0DD
:100BB00080930E0281E080930D028FEF80930C02F0
:100BC00010920B02D0930A02A5E1B2E0EAEEF1E046
:100BD00080E0D81385C01092E9018091E901CC0F23
:100BE000C82BC093E9018091E801813009F07CC0F5
:100BF0001092E8010E9442036B017C018091E9019F
:100C00008093BB008091100290911102A09112027A
:100C1000B0911302892B8A2B8B2B99F00E944203EF
:100C200000911002109111022091120230911302D2
:100C30006C197D098E099F090617170728073907C0
:100C4000E0F18091BC0083FDD9CF85EC8093BC009E
:100C50000E9442036B017C0180910E02823009F4F4
:100C600045C080910C028F3F61F180910C0280326F
:100C700041F180910C0225C08091100290911102E7
:100C8000A0911202B0911302892B8A2B8B2B09F4AD
:100C90008ACF0E944203009110021091110220910C
:100CA0001202309113026C197D098E099F090617F3
:100CB00017072807390708F076CF80910F020E94A6
:100CC0000A0510923B0210923A0210921402DF9130
:100CD000CF911F910F91FF90EF90DF90CF900895EB
:100CE0009D9191938F5F75CF85EEB0CF809110026B
:100CF00090911102A0911202B0911302892B8A2BBC
:100D00008B2B09F4A9CF0E9442030091100210918D
:100D1000110220911202309113026C197D098E0983
:100D20009F09061717072807390708F095CFC5CF81
:100D300090E080E008950E94F002AC0180910201F1
:100D4000882339F081E090E04130510531F080E0B6
:100D500004C081E090E0452BD1F708950F931F93D5
:100D6000CF938C01C62F0E94B1056C2F6460C8011F
:100D70000E94B1056C2F6B7FC8010E94B10583EC06
:100D800090E00197F1F7CF911F910F9108950F9384
:100D90001F93CF93DF938C01D62FC42F607F642BDA
:100DA0000E94AE0680E1D89FB00111246C2BC801CF
:100DB000DF91CF911F910F910C94AE06CF93DF93EB
:100DC000CDB7DEB728970FB6F894DEBF0FBECDBF04
:100DD00098E0EAE0F1E0DE01119601900D929A951B
:100DE000E1F790910A03981708F48FEF90E0880FCD
:100DF000991F21E030E02C0F3D1F820F931FFC0153
:100E00006081606840E082E093E028960FB6F89435
:100E1000DEBF0FBECDBFDF91CF910C94C70640E07F
:100E200061E082E093E00E94C7068BE39FE10197B7
:100E3000F1F780910B03882319F080E00C94DE0613
:100E4000089541E00E94C70681E090E00895FB010B
:100E500001900020E9F73197AF01461B570BDC01E9
:100E6000ED91FC910280F381E02D0994CF93DF9303
:100E70000E948A04EC0162E471E083E592E00E9442
:100E800027078C0F9D1FDF91CF9108958F929F921E
:100E9000AF92BF920F931F93CF93DF93CDB7DEB77F
:100EA000A1970FB6F894DEBF0FBECDBF19A2423096
:100EB00008F44AE08E010F5D1F4F842E912CB12C57
:100EC000A12CA50194010E941512E62FB901CA01B7
:100ED000EA3004F5E05DD801EE938D01232B242B3D
:100EE000252B79F790E080E0109729F0BD0183E58C
:100EF00092E00E942707A1960FB6F894DEBF0FBEBE
:100F0000CDBFDF91CF911F910F91BF90AF909F9078
:100F10008F900895E95CDFCF8AE292E00E94360765
:100F200081E192E00E948A0480910201811155C002
:100F30008EEB91E00E94360788EF91E00E948A04D0
:100F40008091030181114CC089E491E00E94360731
:100F500085EA91E00E948A044AE064E670E080E05D
:100F600090E00E9446078DE991E00E94360784E8F0
:100F700091E00E948A0480910001811134C088E6CA
:100F800090E00E94360780E391E00E948A0460911D
:100F900046027091470280914802909149024AE0CE
:100FA0000E94460780E291E00E948A04609142021A
:100FB0007091430280914402909145024AE00E9460
:100FC000460783E191E00E9436078CEE90E00E9494
:100FD000360782E990E00C9436078AED91E0AACFBB
:100FE00085E691E0B3CF8DE790E0CBCFFC01808127
:100FF0009181009711F00C94D91208950F931F93CB
:10100000CF93DF93EC0188819981009759F02A8171
:101010003B812617370730F081E0DF91CF911F9198
:101020000F9108958B016F5F7F4F0E9462130097AD
:1010300059F0998388831B830A832C813D81232B5C
:1010400059F7FC011082E8CF80E0E7CFEF92FF92E2
:101050000F931F93CF93DF93EC017B018A01BA01B9
:101060000E94FE0728813981811114C021153105A4
:1010700019F0C9010E94D912198218821D821C829E
:101080001B821A82CE01DF91CF911F910F91FF90A9
:10109000EF9008951D830C83B701C9010E942814A5
:1010A000F1CFFB0101900020E9F73197AF01461B1A
:1010B000570B0C94260885ED8093BC00809110029C
:1010C00090911102A0911202B09113020796A11DF6
:1010D000B11D23E0B695A795979587952A95D1F7E9
:1010E0002091BC0024FD03C010920E02089540918F
:1010F0001002509111026091120270911302452B5F
:10110000462B472B69F30097A105B10541F02AE270
:101110002A95F1F700C00197A109B109E1CF8091AB
:101120000F020C940A051F920F920FB60F92112412
:101130002F933F938F939F93AF93BF9380914B02D5
:1011400090914C02A0914D02B0914E0230914A0212
:1011500023E0230F2D3758F50196A11DB11D2093D3
:101160004A0280934B0290934C02A0934D02B0939D
:101170004E0280914F0290915002A0915102B09185
:1011800052020196A11DB11D80934F02909350020F
:10119000A0935102B0935202BF91AF919F918F9152
:1011A0003F912F910F900FBE0F901F90189526E83A
:1011B000230F0296A11DB11DD2CF1F920F920FB621
:1011C0000F9211242F933F934F935F936F937F93CD
:1011D0008F939F93AF93BF93EF93FF9383E592E039
:1011E0000E941B04FF91EF91BF91AF919F918F914E
:1011F0007F916F915F914F913F912F910F900FBE13
:101200000F901F9018951F920F920FB60F921124F6
:101210002F938F939F93EF93FF93E0916302F0914D
:1012200064028081E0916902F0916A0282FD1BC034
:10123000908180916C028F5F8F7320916D02821775
:1012400041F0E0916C02F0E0ED5AFD4F958F8093F4
:101250006C02FF91EF919F918F912F910F900FBE94
:101260000F901F9018958081F4CF1F920F920FB6A8
:101270000F9211242F933F934F935F936F937F931C
:101280008F939F93AF93BF93EF93FF938091B90098
:10129000887F803609F44AC0F0F5883209F4A7C087
:1012A00018F5803109F49BC0B8F4882309F4F9C01B
:1012B000883009F494C0FF91EF91BF91AF919F9155
:1012C0008F917F916F915F914F913F912F910F90EF
:1012D0000FBE0F901F901895883109F488C0803296
:1012E00051F780930C0214C0803409F49DC040F47F
:1012F0008033B9F38833F9F680930C0285ECB0C0E3
:10130000803509F485C0883509F496C0883499F68B
:101310000E945B08D0CF883909F48CC038F5883733
:1013200029F050F4883611F0803729F683E0809355
:101330000E021092E70157C0883809F47BC080394B
:1013400019F0803809F0B7CF8091E701803208F0BA
:1013500071C0E091E70181E08E0F8093E7018091F9
:10136000BB00F0E0E953FE4F80833DC0803B39F085
:10137000E0F4803A09F479C0883A09F09CCF84E01F
:1013800080930E021092C6011092C501E0913802BE
:10139000F091390209958091C50181110FC081E05A
:1013A0008093C5011092A50109C0803C09F4A6CF25
:1013B000883C09F4A3CF883B09F07DCFE091C601BA
:1013C00081E08E0F8093C601F0E0EB55FE4F8081E7
:1013D0008093BB009091C6018091C50129C0809186
:1013E000E9018093BB0085EC8093BC0064CF9091B1
:1013F0000B0280910A02981758F5E0910B0281E0E8
:101400008E0F80930B02F0E0E651FE4F8081E9CF12
:10141000E0910B0281E08E0F80930B028091BB0064
:10142000F0E0E651FE4F808390910B0280910A021A
:101430009817C8F285E8D8CFE0910B0281E08E0FB3
:1014400080930B028091BB00F0E0E651FE4F808359
:1014500080910D0281115CCF81E08093E80184EAE4
:101460008093BC0010920E0226CF85EC8093BC00C6
:1014700010920E028091E701803230F4E091E70192
:10148000F0E0E953FE4F10826091E70170E0E091D7
:101490003602F091370287EC91E009951092E7014E
:1014A0000ACF10920C0234CFCF92DF92EF92FF92CC
:1014B0000F931F93E82FF92F05C00150110921093F
:1014C000310961F1908196239417B9F305C0015059
:1014D00011092109310911F1908196239413F7CF55
:1014E000C12CD12CE12CF12C0AC08FEFC81AD80ADC
:1014F000E80AF80A0C151D052E053F0579F08081D4
:101500008623841791F36C2D7D2D8E2D9F2D1F9199
:101510000F91FF90EF90DF90CF90089560E070E022
:1015200080E090E01F910F91FF90EF90DF90CF90BF
:101530000895E3E5F2E01382128288EE93E0A0E0E2
:10154000B0E084839583A683B78326E131E03183BD
:10155000208325EC30E03587248724EC30E0378782
:10156000268720EC30E0318B208B21EC30E0338B70
:10157000228B22EC30E0358B248B26EC30E0378B4D
:10158000268B118E128E138E148EE0EFF2E01382F2
:10159000128284839583A683B78388E291E0918346
:1015A0008083E2E0F3E0138212828AE391E0918388
:1015B0008083118687E2848380E1828782E083874B
:1015C0001486ECEFF2E011821082138212821582EF
:1015D000148250E040E064E471E0CF010C942608EE
:1015E000CF93DF93CDB7DEB72C970FB6F894DEBF5D
:1015F0000FBECDBF789484B5826084BD84B5816010
:1016000084BD85B5826085BD85B5816085BD8091CD
:101610006E00816080936E00109281008091810045
:10162000826080938100809181008160809381003D
:10163000809180008160809380008091B1008460FF
:101640008093B1008091B00081608093B000809160
:101650007A00846080937A0080917A00826080931F
:101660007A0080917A00816080937A0080917A007C
:10167000806880937A001092C100E5E1F5E0249142
:10168000E1E0F5E084918823C9F090E0880F991F8C
:10169000FC01EE5AFD4FA591B491FC01EB51FB4FBB
:1016A000459154913FB7F8949C91822F809598234F
:1016B0009C93FA019081892380833FBFE09163026C
:1016C000F091640282E08083E0915F02F091600219
:1016D0001082E0916102F09162028FEC808310929F
:1016E0006B02E0916702F091680286E08083E091EE
:1016F0006502F0916602808180618083E0916502DD
:10170000F0916602808188608083E0916502F091AB
:101710006602808180688083E0916502F0916602B4
:1017200080818F7D808381E593E00E94360787E189
:1017300093E00E9436078CED92E00E9436071092EB
:101740003D0210923C0210923B0210923A020E941B
:10175000EC048AE993E090933902809338028BE994
:1017600093E09093370280933602109207038091A2
:101770000D03823018F098E09093070380930A03DA
:1017800062E370E080E090E00E94670360910E03E6
:1017900082E093E00E94B10568EE73E080E090E0A3
:1017A0000E94670360E382E093E00E94AE060BE4D0
:1017B00016E4C8010197F1F760E382E093E00E942C
:1017C000AE06C8010197F1F760E382E093E00E9462
:1017D000AE0683E592E00197F1F760E282E093E0E4
:1017E0000E94AE0660910703606240E082E093E0F1
:1017F0000E94C70684E08093080340E06CE082E02A
:1018000093E00E94C7060E940F0782E080930903BD
:1018100040E066E082E093E00E94C70640E062E0BC
:1018200082E093E00E94C7068BE39FE10197F1F706
:1018300088E080930E0360E082E093E00E94B105AF
:101840000E940F0780E00E94DE0665E471E082E0FE
:1018500093E00E94270781E00E94DE0666E571E0C2
:1018600082E093E00E94270768EC70E080E090E05F
:101870000E9467030E94F002019709F035C210929E
:1018800002018CE992E00E9436070E948C072FB774
:10189000F89480914B0290914C02A0914D02B0912E
:1018A0004E022FBF80933E0290933F02A0934002CE
:1018B000B093410283E592E00E94FB0318161906DB
:1018C000D4F483E592E00E94D9038F7D803509F03E
:1018D00011C21091020181E01827109302018CEFD0
:1018E00093E00E948A0480EF93E0111102C085EE1C
:1018F00093E00E9436070E949B06019709F0B7C249
:101900000E94420380910301882309F467C2E5E144
:10191000F5E06491E1E0F5E0949180910201462FB9
:10192000811101C040E0E92FF0E0EE0FFF1FE1510F
:10193000FB4F8591949100EE13E924E030E00E9482
:10194000540A4B015C0181149104A104B10439F0E3
:10195000FFEF8F1A9F0AAF0ABF0A2FE0B222D5010C
:10196000C401885B9848A109B109893D9744A34007
:10197000B10508F027C2C501B4016C507E4F8F4FEE
:101980009F4F28EE33E040E050E00E941512222ED7
:10199000132F042F352EC22ED32EE42EF52E84ECD9
:1019A00094E00E948A04C501B4010E94A70F20E0C0
:1019B00030E04AE754E40E946A114B015C01AC013B
:1019C0009B010E94101267E671E0811123C02FEF86
:1019D0003FEF4FE75FE7C501B4010E94101281118C
:1019E0000CC02FEF3FEF4FE75FE7C501B4010E9446
:1019F000A20F6BE671E018166CF02FEF3FEF4FE788
:101A00005FE4C501B4010E940B1218160CF09EC1D0
:101A10006FE671E083E592E00E94270782EA94E096
:101A20000E948A044AE0622D712F802F932D0E941C
:101A300046078EE994E00E943607C701B6019695E5
:101A40008795779567950E946703712C10E000E0F9
:101A500083E0882E912CB12CA12C0E949B0601972B
:101A600019F4FFEFAF1ABF0A8BEC97E00197F1F77B
:101A700021E0821A910889F781E092E0A916B10469
:101A80000CF480E09091000127E030E0201B310B46
:101A9000911101C0980101C0880F2A95EAF7782AB0
:101AA0000730110521F0C701B6010E9467030F5FDF
:101AB0001F4F0830110561F6C701B6010E94670388
:101AC0000E949B068C01C72C072C000CDD08EE0839
:101AD000FF08892B09F009C280EE870D8F3508F0C9
:101AE00004C28090460290904702A0904802B090B5
:101AF0004902EFEF8E1A9E0AAE0ABE0A8092460293
:101B000090924702A0924802B092490286E994E07E
:101B10000E948A044AE0C501B4010E9446078BE88E
:101B200094E00E948A04672D83E592E00E943D04C0
:101B300082E894E00E948A044AE0C701B6010E944C
:101B4000460788E794E00E948A0440E1C701B60195
:101B50000E94460786E794E00E94360780910101C3
:101B6000882379F064E471E08CEF92E00E945108E0
:101B700081E00E94DE0663E771E082E093E00E946C
:101B8000270779821A8200910003109101030F5FE9
:101B90001F4FB8018CEF92E00E94FE07882399F056
:101BA0002091FC023091FD0280910003909101038D
:101BB000BE016F5F7F4F820F931F0E942814109306
:101BC00001030093000318861F821A8619861C865B
:101BD0001B866091FC027091FD026115710541F058
:101BE0004091000350910103CE0107960E94260800
:101BF0000B851C850131110508F45AC06801F0E11C
:101C0000CF1AD1080C151D0528F0902F812F8601C1
:101C1000C92ED82E1A8219821C821B821E821D8216
:101C200050E040E064E471E0CE0101960E94260895
:101C3000EB84FC840E151F05E0F4CE14DF0408F4D9
:101C40007601EF81F885EE0DFF1DD08010826F8147
:101C50007885600F711F6115710509F4C4C0CE014C
:101C600001960E9451088F819885E80EF91EF701B0
:101C7000D0828F819885009709F4C4C069817A81E8
:101C80006115710509F4BCC049855A852D813E81D5
:101C90004217530708F4B4C00E9428148D819E8116
:101CA0009C878B871E821D82CE0101960E94F607BB
:101CB0000B851C850031110508F0B5C00F5F1F4F63
:101CC000B801CE0107960E94FE07882389F32F8171
:101CD00038858B859C8562E871E0820F931F0E9496
:101CE00028141C870B87E4CF81E0809302018CE5E8
:101CF00092E0C9CD823489F41091030181E0182764
:101D0000109303018EEC93E00E948A0486EC93E02A
:101D10001111EFCD8DEB93E0ECCD8F3489F4109160
:101D2000000181E018271093000180EA93E00E94EF
:101D30008A0486E993E01111DCCD8CE893E0D9CDDB
:101D4000833509F0D8CD0E948C07D5CD2FEF3FEF1A
:101D50004FE75FECC501B4010E94A20F87FD58CE8A
:101D60002DEC3CEC4CE45DE3C501B4010E94FE1097
:101D70002B013C010E94DC114B015C010E94A70F6A
:101D80009B01AC01C301B2010E94FD102B013C017B
:101D90004AE0C501B4010E9446076EE283E592E085
:101DA0000E943D0420E030E040E251E4C301B20172
:101DB0000E9408100E94DC1190E080E04AE00E943E
:101DC00046072CCE62E370E080E090E00E9467035B
:101DD00034E6C32ED12CE12CF12C2FCE66E970E035
:101DE00080E090E0F3CF89819A81009711F00E9402
:101DF000D9121A8219821E821D821C821B8233CF45
:101E00000E94D91289819A8198878F838B819C81C6
:101E10009A8789878D819E819C878B871A821982F8
:101E20001C821B823FCF81E00E94DE064B855C85D1
:101E30006F81788582E093E00E949D03CE01079632
:101E40000E94F6072FB7F89480914B0290914C02B4
:101E5000A0914D02B0914E022FBF80933E0290930D
:101E60003F02A0934002B093410210920101809181
:101E7000010181112DC02FB7F89480914B029091F0
:101E80004C02A0914D02B0914E022FBF40913E02F4
:101E900050913F026091400270914102841B950B6A
:101EA000A60BB70B803A9F40A105B10588F064E40A
:101EB00071E08CEF92E00E94510881E08093010173
:101EC0000E94DE0666E571E082E093E00E9427074B
:101ED00080E090E0892B09F4EDCC0E940704882370
:101EE00009F4E8CC0E940000E5CC80914202909178
:101EF0004302A0914402B09145020196A11DB11D7B
:101F00008093420290934302A0934402B09345020F
:101F100082E494E00E948A0440E1C701B6010E9475
:101F200046078EE294E00E948A048AE294E0012B44
:101F300011F088E194E00E94360784CF8CEF92E0A4
:101F40000C94F6070E94E40F08F481E00895E894E9
:101F500009C097FB3EF490958095709561957F4FF1
:101F60008F4F9F4F9923A9F0F92F96E9BB2793959F
:101F7000F695879577956795B795F111F8CFFAF4AF
:101F8000BB0F11F460FF1BC06F5F7F4F8F4F9F4FE0
:101F900016C0882311F096E911C0772321F09EE83E
:101FA000872F762F05C0662371F096E8862F70E0A4
:101FB00060E02AF09A95660F771F881FDAF7880F7E
:101FC0009695879597F90895990F0008550FAA0BD4
:101FD000E0E8FEEF16161706E807F907C0F012163C
:101FE0001306E407F50798F0621B730B840B950B3F
:101FF00039F40A2661F0232B242B252B21F4089594
:102000000A2609F4A140A6958FEF811D811D089530
:102010000E941B100C948C100E947E1038F00E94BD
:10202000851020F0952311F00C9475100C947B1002
:1020300011240C94C0100E949D1070F3959FC1F361
:10204000950F50E0551F629FF001729FBB27F00D66
:10205000B11D639FAA27F00DB11DAA1F649F6627BB
:10206000B00DA11D661F829F2227B00DA11D621F0A
:10207000739FB00DA11D621F839FA00D611D221FC4
:10208000749F3327A00D611D231F849F600D211DA8
:10209000822F762F6A2F11249F5750409AF0F1F02B
:1020A00088234AF0EE0FFF1FBB1F661F771F881F94
:1020B00091505040A9F79E3F510580F00C94751047
:1020C0000C94C0105F3FE4F3983ED4F38695779567
:1020D0006795B795F795E7959F5FC1F7FE2B880F3A
:1020E000911D9695879597F9089597F99F6780E8D0
:1020F00070E060E008959FEF80EC089500240A945A
:102100001616170618060906089500240A941216D2
:102110001306140605060895092E0394000C11F405
:10212000882352F0BB0F40F4BF2B11F460FF04C0B2
:102130006F5F7F4F8F4F9F4F089557FD9058440F0B
:10214000551F59F05F3F71F04795880F97FB991F16
:1021500061F09F3F79F087950895121613061406D3
:10216000551FF2CF4695F1DF08C016161706180660
:10217000991FF1CF86957105610508940895E8943B
:10218000BB2766277727CB0197F908952F923F92B7
:102190004F925F926F927F928F929F92AF92BF9277
:1021A000CF92DF92EF92FF920F931F93CF93DF9323
:1021B000CDB7DEB7CA1BDB0B0FB6F894DEBF0FBE80
:1021C000CDBF09942A88398848885F846E847D84CD
:1021D0008C849B84AA84B984C884DF80EE80FD80CF
:1021E0000C811B81AA81B981CE0FD11D0FB6F89445
:1021F000DEBF0FBECDBFED0108955058BB27AA2703
:102200000E9415110C948C100E947E1038F00E94D0
:10221000851020F039F49F3F19F426F40C947B10BC
:102220000EF4E095E7FB0C947510E92F0E949D10C9
:1022300058F3BA17620773078407950720F079F4FB
:10224000A6F50C94BF100EF4E0950B2EBA2FA02D1E
:102250000B01B90190010C01CA01A0011124FF2753
:10226000591B99F0593F50F4503E68F11A16F0404E
:10227000A22F232F342F4427585FF3CF469537954D
:102280002795A795F0405395C9F77EF41F16BA0B12
:10229000620B730B840BBAF09150A1F0FF0FBB1FC0
:1022A000661F771F881FC2F70EC0BA0F621F731F09
:1022B000841F48F4879577956795B795F7959E3F66
:1022C00008F0B0CF9395880F08F09927EE0F9795F7
:1022D000879508950E947E110C948C100E948510A1
:1022E00058F00E947E1040F029F45F3F29F00C94D2
:1022F000751051110C94C0100C947B100E949D100D
:1023000068F39923B1F3552391F3951B550BBB2724
:10231000AA2762177307840738F09F5F5F4F220F69
:10232000331F441FAA1FA9F335D00E2E3AF0E0E860
:1023300032D091505040E695001CCAF72BD0FE2FAA
:1023400029D0660F771F881FBB1F2617370748073E
:10235000AB07B0E809F0BB0B802DBF01FF279358F6
:102360005F4F3AF09E3F510578F00C9475100C9435
:10237000C0105F3FE4F3983ED4F386957795679558
:10238000B795F7959F5FC9F7880F911D969587952B
:1023900097F90895E1E0660F771F881FBB1F62174A
:1023A00073078407BA0720F0621B730B840BBA0B08
:1023B000EE1F88F7E09508950E94A51088F09F57BA
:1023C00098F0B92F9927B751B0F0E1F0660F771F59
:1023D000881F991F1AF0BA95C9F714C0B13091F04F
:1023E0000E94BF10B1E008950C94BF10672F782FA2
:1023F0008827B85F39F0B93FCCF386957795679514
:10240000B395D9F73EF490958095709561957F4F7F
:102410008F4F9F4F08950E94E40F08F48FEF0895A7
:102420000E94E40F880B990B0895A1E21A2EAA1BB3
:10243000BB1BFD010DC0AA1FBB1FEE1FFF1FA21774
:10244000B307E407F50720F0A21BB30BE40BF50B71
:10245000661F771F881F991F1A9469F760957095FA
:10246000809590959B01AC01BD01CF010895EE0FC1
:10247000FF1F0590F491E02D09940F931F93CF93C4
:10248000DF938230910510F482E090E0E091110337
:10249000F091120330E020E0B0E0A0E0309799F432
:1024A0002115310509F44AC0281B390B24303105A8
:1024B000D8F58A819B816115710589F1FB019383B0
:1024C0008283FE0111C0408151810281138148172E
:1024D0005907E0F04817590799F4109761F01296E0
:1024E0000C93129713961C933296CF01DF91CF91E4
:1024F0001F910F9108950093110310931203F4CFCD
:102500002115310551F04217530738F0A901DB01BD
:102510009A01BD01DF01F801C1CFEF01F9CF90931E
:10252000120380931103CDCFFE01E20FF31F8193BD
:1025300091932250310939832883D7CF20910F03FB
:1025400030911003232B41F42091060130910701B3
:102550003093100320930F03209104013091050163
:102560002115310541F42DB73EB740910801509136
:102570000901241B350BE0910F03F0911003E217C2
:10258000F307A0F42E1B3F0B2817390778F0AC0196
:102590004E5F5F4F2417350748F04E0F5F1F509373
:1025A000100340930F03819391939FCFF0E0E0E0FD
:1025B0009CCFCF93DF930097E9F0FC013297138211
:1025C0001282A0911103B0911203ED0130E020E0DE
:1025D0001097A1F420813181820F931F20910F0366
:1025E000309110032817390709F061C0F0931003E8
:1025F000E0930F03DF91CF910895EA01CE17DF0733
:10260000E8F54A815B819E0141155105B1F7E90169
:10261000FB83EA8349915991C40FD51FEC17FD073D
:1026200061F4808191810296840F951FE90199835D
:102630008883828193819B838A83F0E0E0E0129615
:102640008D919C9113970097B9F52D913C9111971D
:10265000CD010296820F931F20910F03309110033A
:102660002817390739F6309751F510921203109256
:102670001103B0931003A0930F03BCCFD383C28385
:1026800040815181840F951FC817D90761F44E5FAF
:102690005F4F88819981480F591F518340838A81F8
:1026A0009B81938382832115310509F0B0CFF0938C
:1026B0001203E09311039ECFFD01DC01C0CF138212
:1026C0001282D7CFB0E0A0E0E8E6F3E10C94C810A6
:1026D0008C01009751F4CB010E943D128C01C8017E
:1026E000CDB7DEB7E0E10C94E410FC01E60FF71F74
:1026F0009C0122503109E217F30708F49DC0D9016B
:10270000CD91DC911197C617D70798F0C530D10548
:1027100030F3CE0104978617970708F3C61BD70B33
:102720002297C193D1936D937C93CF010E94D912CC
:10273000D6CF5B01AC1ABD0A4C018C0E9D1EA09138
:102740001103B0911203512C412CF12CE12C109764
:1027500031F580910F03909110038815990509F0C8
:102760005CC04616570608F058C08091040190914D
:102770000501009741F48DB79EB740910801509133
:102780000901841B950BE817F90708F055C0F09371
:102790001003E0930F03F90171836083A0CF8D9143
:1027A0009C91119712966C90129713967C901397A8
:1027B000A815B90559F56C0142E0C40ED11CCA1424
:1027C000DB0420F1AC014A195B09DA011296159776
:1027D00080F06282738251834083D9016D937C9330
:1027E000E114F10471F0D7011396FC93EE93129764
:1027F00076CF22968C0F9D1FF90191838083F30180
:10280000EFCFF0931203E093110369CF48165906F6
:1028100008F42C017D01D3019ACFCB010E943D1217
:102820007C01009749F0AE01B8010E941F14C80155
:102830000E94D912870153CF10E000E050CFFB0176
:10284000DC0102C001900D9241505040D8F708952C
:10285000FB01DC0101900D920020E1F7089512E0E8
:10286000CCE9D2E004C0FE010E9437122196CD3996
:08287000D107C9F7F894FFCF6E
:102878000101010100001303800000004000140062
:102888005400000000003D049D03CA03A504FB0397
:10289800D903ED03000000008205550598062B05B5
:1028A8004E053B052C050000000021079D039806F6
:1028B8009C030D0A004C69466920527820546572C1
:1028C8006D696E616C004C697374656E696E672E14
:1028D8002E2E20202020006E616E00696E66006F2B
:1028E8007666002020202020202020202020202064
:0428F800202020007C
:00000001FF
